:100000000C9462000C948A000C948A000C948A0070
:100010000C948A000C948A000C948A000C948A0038
:100020000C948A000C948A000C948A000C948A0028
:100030000C948A000C948A000C948A000C948A0018
:100040000C94DD0A0C948A000C944D0B0C94270B35
:100050000C948A000C948A000C948A000C948A00F8
:100060000C947F0B0C948A000000000024002700F1
:100070002A0000000000250028002B0000000000DE
:1000800023002600290004040404040404040202DA
:100090000202020203030303030301020408102007
:1000A0004080010204081020010204081020000012
:1000B0000008000201000003040700000000000027
:1000C00000009E0C11241FBECFEFD8E0DEBFCDBFD5
:1000D00012E0A0E0B1E0E6E9FBE302C005900D927A
:1000E000AE34B107D9F724E0AEE4B2E001C01D920E
:1000F000A832B207E1F710E0C2E6D0E004C02197D1
:10010000FE010E94A01DC136D107C9F70E94E70C6D
:100110000C94C91D0C940000833081F028F48130C8
:1001200099F08230A9F008958730A9F08830C9F09D
:100130008430B1F4809180008F7D03C08091800075
:100140008F7780938000089584B58F7784BD08955C
:1001500084B58F7DFBCF8091B0008F778093B00006
:1001600008958091B0008F7DF9CFCF93DF93282F32
:1001700030E0F901E255FF4F8491F901E656FF4F57
:10018000D491F901EA57FF4FC491CC23A1F081111A
:100190000E948C00EC2FF0E0EE0FFF1FE458FF4FA1
:1001A000A591B491EC91ED2381E090E009F480E019
:1001B000DF91CF91089580E090E0FACF1F93CF9325
:1001C000DF93282F30E0F901E255FF4F8491F901C8
:1001D000E656FF4FD491F901EA57FF4FC491CC2363
:1001E000A9F0162F81110E948C00EC2FF0E0EE0F89
:1001F000FF1FEE58FF4FA591B4918FB7F894EC9183
:10020000111108C0D095DE23DC938FBFDF91CF9111
:100210001F910895DE2BF8CFCF93DF9390E0FC0180
:10022000E656FF4F24918A579F4FFC018491882303
:10023000D1F090E0880F991FFC01E859FF4FA5917C
:10024000B491FC01EE58FF4FC591D49161110EC0DD
:100250009FB7F8948C91E22FE0958E238C932881A0
:10026000E223E8839FBFDF91CF9108958FB7F89481
:10027000EC91E22BEC938FBFF6CF3FB7F8948091CF
:10028000670390916803A0916903B0916A0326B552
:10029000A89B05C02F3F19F00196A11DB11D3FBFBE
:1002A000BA2FA92F982F8827BC01CD01620F711D8D
:1002B000811D911D42E0660F771F881F991F4A9587
:1002C000D1F708958F929F92AF92BF92CF92DF9213
:1002D000EF92FF924B015C010E943D016B017C019A
:1002E0000E943D016C197D098E099F09683E73408B
:1002F00081059105A8F321E0821A9108A108B108AF
:1003000088EEC80E83E0D81EE11CF11C8114910414
:10031000A104B10429F7FF90EF90DF90CF90BF9038
:10032000AF909F908F90089508950895AF92BF92D7
:10033000CF92DF92EF92FF920F931F93CF93DF93B1
:100340006C017B018B01040F151FEB015E01AE18E0
:10035000BF08C017D10759F06991D601ED91FC9102
:100360000190F081E02DC6010995892B79F7C5012F
:10037000DF91CF911F910F91FF90EF90DF90CF9081
:10038000BF90AF900895FC01538D448D252F30E030
:10039000842F90E0821B930B541710F0CF96089592
:1003A00001970895FC01918D828D981761F0A28DBF
:1003B000AE0FBF2FB11D5D968C91928D9F5F9F7385
:1003C000928F90E008958FEF9FEF0895FC01918D3B
:1003D000828D981731F0828DE80FF11D858D90E0A8
:1003E00008958FEF9FEF0895FC01918D228D892F45
:1003F00090E0805C9F4F821B91098F73992708952D
:1004000082E793E00E94F40121E0892B09F420E0C7
:10041000822F089580E090E0892B29F00E9400024D
:1004200081110C9400000895FC01A48DA80FB92F30
:10043000B11DA35ABF4F2C91848D90E001968F730C
:100440009927848FA689B7892C93A089B1898C912B
:10045000837080648C93938D848D981306C002887A
:10046000F389E02D80818F7D80830895EF92FF9244
:100470000F931F93CF93DF93EC0181E0888F9B8DC7
:100480008C8D98131AC0E889F989808185FF15C081
:100490009FB7F894EE89FF896083E889F9898081A4
:1004A0008370806480839FBF81E090E0DF91CF9173
:1004B0001F910F91FF90EF900895F62E0B8D10E095
:1004C0000F5F1F4F0F731127E02E8C8D8E110CC004
:1004D0000FB607FCFACFE889F989808185FFF5CF4F
:1004E000CE010E941402F1CFEB8DEC0FFD2FF11D18
:1004F000E35AFF4FF0829FB7F8940B8FEA89FB898C
:1005000080818062CFCFCF93DF93EC01888D8823E9
:10051000B9F0AA89BB89E889F9898C9185FD03C066
:10052000808186FD0DC00FB607FCF7CF8C9185FF4B
:10053000F2CF808185FFEDCFCE010E941402E9CF7A
:10054000DF91CF910895609310037093110380930E
:10055000120390931303645D7E4F8F4F9F4F609300
:100560000C0370930D0380930E0390930F0382E0AE
:1005700090E090930B0380930A032FB7F894809137
:10058000630390916403A0916503B09166032FBF4C
:100590008093060390930703A0930803B093090385
:1005A00008958F929F92AF92BF92CF92DF92EF9277
:1005B000FF920F931F93CF93C82F262F8EE1809326
:1005C00071031092700310926F03C0936D036093D8
:1005D0006C0340936B03E2EBF7E0812C89E0982EEB
:1005E00084E6A82E88E3B82E04E610E090E9E92E10
:1005F000FF24F394CF0183709927892B99F4CF01BD
:10060000B8010E946A1D892B31F4CF01B7010E9405
:100610006A1D892B39F480E8880E81E5981E81E0F7
:10062000A81EB11C3196E03D87E0F80719F7C42EEB
:10063000D12CF12CE12C80E8C81A81E5D80A81E0A0
:10064000E80AF10830E0ACE3B0E00E94A61DC60E57
:10065000D71EE81EF91E2C2F30E0A0E1BEE00E945C
:10066000A61D6C0D7D1D8E1D9F1D680D791D8A1D9B
:100670009B1DCF911F910F91FF90EF90DF90CF9036
:10068000BF90AF909F908F900C94A302CF92DF9277
:10069000EF92FF920F931F938FB7F894C09063036C
:1006A000D0906403E0906503F09066038FBF0091E3
:1006B0000603109107032091080330910903C01A23
:1006C000D10AE20AF30A609110037091110380913C
:1006D00012039091130348EEC41643E0D406E104DC
:1006E000F104C8F06F5F7F4F8F4F9F4F60931003EF
:1006F00070931103809312039093130308511C4FBE
:100700002F4F3F4F009306031093070320930803D6
:1007100030930903C1CF1F910F91FF90EF90DF90AD
:10072000CF9008954F925F926F927F928F929F9297
:10073000AF92BF92CF92DF92EF92FF920F931F93EF
:10074000CF93DF934B015C018091020390910303EF
:10075000A0910403B091050388159905AA05BB056E
:1007600009F4C6C08CE3C82ED12CE12CF12CC501B4
:10077000A70196010E947E1D60936B03CA01B90117
:10078000A70196010E947E1D60936C03C501B40110
:1007900020E13EE040E050E00E947E1DCA01B90128
:1007A00028E130E040E050E00E947E1D60936D0340
:1007B000C501B40120E831E541E050E00E947E1D12
:1007C00069017A01CA01B9016C5F7F4F8F4F9F4F5A
:1007D00027E030E040E050E00E947E1D6F5F6093B4
:1007E0006E03412C512C320140E004E610E0C0E9D8
:1007F000D1E0242F30E02E54384FF901E370FF2769
:100800003097F9F4C901B8010E946A1D892B31F4AF
:10081000C901BE010E946A1D892B99F48EE691E000
:10082000A0E0B0E0480E591E6A1E7B1ED301C20133
:10083000AA27BB27C816D906EA06FB0638F04F5F81
:10084000D8CF8DE691E0A0E0B0E0ECCF409371030B
:10085000C90164E670E00E946A1DEC01C90160E90B
:1008600071E00E946A1D309721F42097D9F4009717
:10087000C9F04DE651E060E070E0441A550A660A9E
:10088000770AC418D508E608F708A8E4B1E020E024
:10089000213069F43097E9F5209711F40097C9F5F4
:1008A0004DE106C04EE651E060E070E0E6CF4C91CD
:1008B00050E070E060E031E0320FC416D506E60685
:1008C000F70640F0C41AD50AE60AF70A1196232F54
:1008D0003C30F1F62F5F20937003C394C0926F03F6
:1008E0008092020390920303A0920403B092050346
:1008F000DF91CF911F910F91FF90EF90DF90CF90FC
:10090000BF90AF909F908F907F906F905F904F902F
:1009100008954CE1CDCF0E9446030E94920380913E
:100920006B0390E008950E9446030E949203809119
:100930006C0390E008950E9446030E949203809108
:100940006D0390E00895089520919102260F3327BA
:10095000331F21323105ECF42091DA02FC0190E0E2
:1009600080E0243069F082E00895A0919102219105
:10097000AC014F585D4FA40FB52FB11D2C930196BC
:10098000861798F380919102680F6093910280E03E
:10099000089581E008951092DA0281E08093D902EF
:1009A0001092B40261E082E10E94DE0061E083E126
:1009B0000E94DE00E9EBF0E080818E7F8083808101
:1009C0008D7F808388E48093B80085E48093BC00A9
:1009D0000895CF93DF9391E0909370028823B9F04C
:1009E000C091B800D091BA008091BC008A7B8093FE
:1009F000BC0060E082E10E94DE0060E083E10E94D2
:100A0000DE000E94CB04D093BA00C093B800DF91FF
:100A1000CF9108950895E0911B0380911A03E81780
:100A200030F4F0E0E05BFD4F808190E008958FEFBF
:100A30009FEF089590911B0380911A032FEF3FEFD2
:100A4000981748F4E92FF0E0E05BFD4F208130E09B
:100A50009F5F90931B03C901089580911A039091A1
:100A60001B03891B990B0895CF92DF92EF92FF929F
:100A70000F931F93CF93DF937C01CB018A012091C9
:100A8000E002222389F0EB016B01C40ED51ECC15C8
:100A9000DD0569F06991D701ED91FC910190F0813C
:100AA000E02DC7010995F3CF642F0E94A404C8016B
:100AB000DF91CF911F910F91FF90EF90DF90CF903A
:100AC0000895CF93DF931F92CDB7DEB7698320914E
:100AD000E0022223F9F020911803203258F021E09F
:100AE00030E0FC013383228390E080E00F90DF91BF
:100AF000CF91089580911903E82FF0E0EF51FD4F59
:100B0000998190838F5F809319038093180381E00C
:100B100090E0ECCF61E0CE0101960E94A404F7CFF3
:100B2000CF92DF92EF92FF920F931F93CF93DF93B9
:100B3000FC01C48121E02093E002C09301031092E4
:100B40001903109218038485682B8FE094E00E94AB
:100B50006105D0911803D13208F092C00E943D0186
:100B60006B017C018091DA02811165C082E0809383
:100B7000DA0281E08093D9028FEF8093D80210923D
:100B8000D702D093D602A1EEB2E0E6EBF2E080E02D
:100B9000D81385C01092B5028091B502CC0FC82B36
:100BA000C093B5028091B402813009F07CC01092EC
:100BB000B4020E943D016B017C018091B5028093DB
:100BC000BB008091DC029091DD02A091DE02B09129
:100BD000DF02892B8A2B8B2B99F00E943D0100911B
:100BE000DC021091DD022091DE023091DF026C19EF
:100BF0007D098E099F090617170728073907E0F1B5
:100C00008091BC0083FDD9CF85EC8093BC000E940D
:100C10003D016B017C018091DA02823009F445C00C
:100C20008091D8028F3F61F18091D802803241F1EA
:100C30008091D80225C08091DC029091DD02A091C4
:100C4000DE02B091DF02892B8A2B8B2B09F48ACF2D
:100C50000E943D010091DC021091DD022091DE0234
:100C60003091DF026C197D098E099F09061717075D
:100C70002807390708F076CF8091DB020E94E9044B
:100C800010921903109218031092E002DF91CF9195
:100C90001F910F91FF90EF90DF90CF9008959D915D
:100CA00091938F5F75CF85EEB0CF8091DC029091EC
:100CB000DD02A091DE02B091DF02892B8A2B8B2B03
:100CC00009F4A9CF0E943D010091DC021091DD02E0
:100CD0002091DE023091DF026C197D098E099F0997
:100CE000061717072807390708F095CFC5CF90E0FA
:100CF00080E008958F929F92AF92BF920F931F93BF
:100D0000CF93DF93CDB7DEB7A1970FB6F894DEBFD0
:100D10000FBECDBF19A2423008F44AE08E010F5D2C
:100D20001F4F842E912CB12CA12CA50194010E945F
:100D30007E1DE62FB901CA01EA3044F5E05DD80115
:100D4000EE938D01232B242B252B79F790E080E067
:100D5000109769F0FD0101900020E9F73197AF018C
:100D60004A1B5B0BBD018BE194E00E949601A196AA
:100D70000FB6F894DEBF0FBECDBFDF91CF911F91AC
:100D80000F91BF90AF909F908F900895E95CD7CF5F
:100D9000FC0101900020E9F73197AF01481B590B86
:100DA000BC018BE194E00C9496010F931F93CF93B9
:100DB0008C01C62F0E9490056C2F6460C8010E94B0
:100DC00090056C2F6B7FC8010E94900583EC90E02A
:100DD0000197F1F7CF911F910F9108950F931F93F2
:100DE000CF93DF938C01D62FC42F607F642B0E949A
:100DF000D50680E1D89FB00111246C2BC801DF918A
:100E0000CF911F910F910C94D50641E00E94EE0600
:100E100081E090E00895CF92DF92EF92FF926C0113
:100E2000990FEE08FF08F7FE16C041E06DE28BE176
:100E300094E00E94EE0666277727CB016C197D09A6
:100E40008E099F094AE00E947A060196FF90EF9072
:100E5000DF90CF9008954AE0C701B601FF90EF9070
:100E6000DF90CF900C947A06CF93DF93EC0189E169
:100E700092E00E94C806CA30D10534F441E060E334
:100E80008BE194E00E94EE06CE01DF91CF910C94AD
:100E90000B07CF93DF93CDB7DEB728970FB6F89443
:100EA000DEBF0FBECDBF98E0E0E4F1E0DE011196B9
:100EB00001900D929A95E1F790912304961710F402
:100EC0006FEF690F262F30E0220F331F41E050E013
:100ED0004C0F5D1F240F351FF9016081680F60689A
:100EE00040E08BE194E028960FB6F894DEBF0FBE89
:100EF000CDBFDF91CF910C94EE0640E061E08BE135
:100F000094E00E94EE068BE39FE10197F1F7809158
:100F10002404882321F060E080E00C9449070895C0
:100F2000CF93DF9363E080E00E94490765E08BE1A7
:100F300094E00E94050763E081E00E94490784E88D
:100F400091E00E94C80663E085E00E94490760E0E6
:100F50008BE194E00E94050763E086E00E94490768
:100F600088E891E00E94C80663E08FE00E9449078C
:100F700060E08BE194E00E94050763E080E10E945D
:100F800049078FE891E00E94C80660E081E00E9476
:100F9000490765E08BE194E00E94050761E081E08C
:100FA0000E94490765E08BE194E00E94050762E03A
:100FB00081E00E94490765E08BE194E00E9405070B
:100FC00060E08CE00E94490765E08BE194E00E94BC
:100FD00005078091420390914303019741F560E03A
:100FE00082E00E94490780914403909145030A974B
:100FF00024F484E991E00E94C80680914403909112
:1010000045030E940B0789E192E00E94C806809187
:101010005603909157030A9724F484E991E00E94C3
:10102000C80680915603909157030E940B07809148
:101030003A0390913B03019741F561E082E00E9401
:10104000490780913C0390913D030A9724F484E979
:1010500091E00E94C80680913C0390913D030E945C
:101060000B0789E192E00E94C8068091500390919D
:1010700051030A9724F484E991E00E94C806809104
:101080005003909151030E940B078091340390917B
:101090003503019741F562E082E00E9449078091A3
:1010A0003603909137030A9724F484E991E00E9473
:1010B000C80680913603909137030E940B0789E19F
:1010C00092E00E94C80680914C0390914D030A97CC
:1010D00024F484E991E00E94C80680914C03909129
:1010E0004D030E940B0780912E0390912F030197CF
:1010F00041F560E08DE00E944907809130039091B6
:1011000031030A9724F484E991E00E94C806809193
:101110003003909131030E940B0789E192E00E9415
:10112000C80680914803909149030A9724F484E902
:1011300091E00E94C80680914803909149030E9463
:101140000B078091420390914303892B41F460E0A7
:1011500082E00E94490786E991E00E94C8068091DA
:101160003A0390913B03892B41F461E082E00E94B5
:10117000490786E991E00E94C80680913403909166
:101180003503892B41F462E082E00E94490786E939
:1011900091E00E94C80680912E0390912F03892B25
:1011A00041F460E08DE00E94490786E991E00E94E9
:1011B000C806C0915803D0915903C130D10531F40C
:1011C0000E947D07D0933F03C0933E0380911C0390
:1011D00090911D0381309105D1F58091600390912C
:1011E0006103019779F480914E0290914F0201962C
:1011F00090934F0280934E0287E090E090933F03DC
:1012000080933E0380915E0390915F03019709F004
:101210007AC080914E0290914F02019790934F02B5
:1012200080934E02109243031092420310924503A2
:1012300010924403109257031092560360E082E02C
:101240000E94490786E991E00E94C80619C08230D1
:10125000910509F03FC0809160039091610301976F
:1012600079F480914E0290914F02019690934F0233
:1012700080934E0289E090E090933F0380933E0379
:1012800080911C0390911D030297E9F580915E0304
:1012900090915F030197B9F580914E0290914F02B2
:1012A000019790934F0280934E0210923B0310924D
:1012B0003A0310923D0310923C0310925103109296
:1012C000500361E082E00E94490786E991E00E94B4
:1012D000C80619C08330910509F0FFC080916003F2
:1012E00090916103019779F480914E0290914F02A1
:1012F000019690934F0280934E028BE090E0909382
:101300003F0380933E0380911C0390911D0303973C
:1013100019F580915E0390915F030197E9F4809144
:101320004E0290914F02019790934F0280934E028C
:101330001092350310923403109237031092360343
:1013400010924D0310924C0362E082E00E94490724
:1013500086E991E00E94C80680911C0390911D03CC
:10136000049719F580915E0390915F030197E9F46A
:1013700080914E0290914F02019790934F0280937B
:101380004E0210922F0310922E03109231031092EE
:101390003003109249031092480360E08DE00E94F0
:1013A000490786E991E00E94C80680915A0390910E
:1013B0005B03019749F480911C0390911D030196F2
:1013C00090931D0380931C0380911C0390911D0337
:1013D000059734F081E090E090931D0380931C0307
:1013E00080915C0390915D03019749F480911C0307
:1013F00090911D03019790931D0380931C0380918E
:101400001C0390911D031816190634F084E090E037
:1014100090931D0380931C0380911C0390911D03E6
:1014200081309105D9F461E080E00E9449078CE9A0
:1014300091E00E94C80660E08BE00E9449078CE9B9
:1014400091E00E94C80660E080E00E94490767E0E2
:101450008BE194E0DF91CF910C94050782309105E8
:1014600091F460E080E00E9449078CE991E00E94DD
:10147000C80662E080E00E9449078CE991E00E9482
:10148000C80661E0E1CF8330910591F461E080E02E
:101490000E9449078CE991E00E94C80660E08BE059
:1014A0000E9449078CE991E00E94C80662E0CCCF17
:1014B000049749F562E080E00E9449078CE991E0D9
:1014C0000E94C80660E080E00E9449078CE991E034
:1014D0000E94C80660E08BE0B8CF049709F0D0CE38
:1014E0008091600390916103019709F00CCF809186
:1014F0004E0290914F02019690934F0280934E02BC
:101500008DE090E0B9CEDF91CF9108950F931F93B6
:10151000CF93DF938B0198E0899FB0011124606421
:1015200040E08BE194E00E94EE06E801085F1F4F67
:1015300069918BE194E00E940507C017D107C1F7BC
:10154000DF91CF911F910F91089585ED8093BC009D
:101550008091DC029091DD02A091DE02B091DF0269
:101560000796A11DB11D23E0B695A7959795879580
:101570002A95D1F72091BC0024FD03C01092DA0215
:1015800008954091DC025091DD026091DE0270917D
:10159000DF02452B462B472B69F30097A105B105C8
:1015A00041F02AE22A95F1F700C00197A109B1099B
:1015B000E1CF8091DB020C94E9041F920F920FB6E9
:1015C0000F9211242F933F938F939F93AF93BF93C9
:1015D0008091630390916403A0916503B0916603C9
:1015E0003091620323E0230F2D3758F50196A11D9A
:1015F000B11D209362038093630390936403A093CF
:101600006503B09366038091670390916803A0918E
:101610006903B0916A030196A11DB11D8093670310
:1016200090936803A0936903B0936A03BF91AF914D
:101630009F918F913F912F910F900FBE0F901F9010
:10164000189526E8230F0296A11DB11DD2CF1F9237
:101650000F920FB60F9211242F933F934F935F93E6
:101660006F937F938F939F93AF93BF93EF93FF936A
:1016700082E793E00E941402FF91EF91BF91AF9136
:101680009F918F917F916F915F914F913F912F919A
:101690000F900FBE0F901F9018951F920F920FB6CC
:1016A0000F9211242F938F939F93EF93FF93E091C9
:1016B0008203F09183038081E0918803F091890394
:1016C00082FD1BC0908180918B038F5F8F7320916F
:1016D0008C03821741F0E0918B03F0E0EE58FC4F51
:1016E000958F80938B03FF91EF919F918F912F9115
:1016F0000F900FBE0F901F9018958081F4CF1F920E
:101700000F920FB60F9211242F933F934F935F9335
:101710006F937F938F939F93AF93BF93EF93FF93B9
:101720008091B900887F803609F44AC0F0F588328C
:1017300009F4A7C018F5803109F49BC0B8F48823D8
:1017400009F4F9C0883009F494C0FF91EF91BF917A
:10175000AF919F918F917F916F915F914F913F9149
:101760002F910F900FBE0F901F901895883109F49C
:1017700088C0803251F78093D80214C0803409F4B5
:101780009DC040F48033B9F38833F9F68093D802D2
:1017900085ECB0C0803509F485C0883509F496C061
:1017A000883499F60E94A50AD0CF883909F48CC0F4
:1017B00038F5883729F050F4883611F0803729F64B
:1017C00083E08093DA021092B30257C0883809F49C
:1017D0007BC0803919F0803809F0B7CF8091B3020F
:1017E000803208F071C0E091B30281E08E0F8093E7
:1017F000B3028091BB00F0E0ED56FD4F80833DC009
:10180000803B39F0E0F4803A09F479C0883A09F075
:101810009CCF84E08093DA0210929202109291029F
:10182000E0911603F09117030995809191028111BF
:101830000FC081E0809391021092710209C0803C38
:1018400009F4A6CF883C09F4A3CF883B09F07DCFEB
:10185000E091920281E08E0F80939202F0E0EF58C7
:10186000FD4F80818093BB00909192028091910204
:1018700029C08091B5028093BB0085EC8093BC00A9
:1018800064CF9091D7028091D602981758F5E091D5
:10189000D70281E08E0F8093D702F0E0EA54FD4F2B
:1018A0008081E9CFE091D70281E08E0F8093D7024B
:1018B0008091BB00F0E0EA54FD4F80839091D70205
:1018C0008091D6029817C8F285E8D8CFE091D70268
:1018D00081E08E0F8093D7028091BB00F0E0EA5444
:1018E000FD4F80838091D90281115CCF81E080938C
:1018F000B40284EA8093BC001092DA0226CF85EC11
:101900008093BC001092DA028091B302803230F4EE
:10191000E091B302F0E0ED56FD4F10826091B3020A
:1019200070E0E0911403F091150383E992E00995CA
:101930001092B3020ACF1092D80234CFE2E7F3E05C
:101940001382128288EE93E0A0E0B0E08483958356
:10195000A683B78328E531E03183208325EC30E08E
:101960003587248724EC30E03787268720EC30E069
:10197000318B208B21EC30E0338B228B22EC30E05A
:10198000358B248B26EC30E0378B268B118E128E14
:10199000138E148EEFE0F4E0138212828483958319
:1019A000A683B7838AE691E091838083EBE1F4E03C
:1019B000138212828CE791E091838083118680E20A
:1019C000848384E1828784E08387148608957894F1
:1019D00084B5826084BD84B5816084BD85B5826034
:1019E00085BD85B5816085BD80916E0081608093E5
:1019F0006E0010928100809181008260809381004E
:101A0000809181008160809381008091800081605D
:101A1000809380008091B10084608093B1008091B8
:101A2000B00081608093B00080917A0084608093E0
:101A30007A0080917A00826080937A0080917A00A7
:101A4000816080937A0080917A00806880937A0028
:101A50001092C100E0918203F091830382E08083C1
:101A6000E0917E03F0917F031082E0918003F0917A
:101A700081038FEC808310928A03E0918603F091BA
:101A8000870386E08083E0918403F0918503808161
:101A900080618083E0918403F09185038081886078
:101AA0008083E0918403F091850380818068808346
:101AB000E0918403F091850380818F7D8083109273
:101AC0001B0310921A0310921903109218030E941C
:101AD000CB0484E991E0909317038093160385E982
:101AE00091E0909315038093140310922004809149
:101AF0002604823018F098E0909320048093230409
:101B000062E370E080E090E00E946201609127044F
:101B10008BE194E00E94900568EE73E080E090E035
:101B20000E94620160E38BE194E00E94D506CBE461
:101B3000D6E4CE010197F1F760E38BE194E00E94D7
:101B4000D5062197F1F760E38BE194E00E94D5067A
:101B500083E592E00197F1F760E28BE194E00E9467
:101B6000D50660912004606240E08BE194E00E9421
:101B7000EE0684E08093210440E06CE08BE194E089
:101B80000E94EE060E947D0782E08093220440E0DE
:101B900066E08BE194E00E94EE0640E062E08BE1BB
:101BA00094E00E94EE068BE39FE10197F1F788E055
:101BB0008093270460E08BE194E00E9490058CE024
:101BC00090E09093230380932203109221031092BC
:101BD000200310921F0310921E0368E371E080E05F
:101BE0000E94860A60E371E081E00E94860A68E252
:101BF00071E082E00E94860A60E271E083E00E9468
:101C0000860A68E171E084E00E94860A60E171E082
:101C100085E00E94860A68E071E086E00E94860AFC
:101C200060E071E087E00E94860A109245031092FE
:101C30004403109257031092560310923D031092E2
:101C40003C031092510310925003109237031092EC
:101C5000360310924D0310924C03109231031092F0
:101C600030031092490310924803109255031092CA
:101C70005403109243031092420310923B031092BC
:101C80003A03109235031092340310922F031092EE
:101C90002E031092410310924003109239031092C8
:101CA0003803109233031092320310922D031092D6
:101CB0002C03109253031092520310924F03109270
:101CC0004E0310924B0310924A0310924703109256
:101CD00046030E947D0750E040E070E060E08CE049
:101CE00090E00E94D10260E083E00E940C0160E07D
:101CF00084E00E940C0160E085E00E940C0160E03D
:101D000086E00E940C0160E087E00E940C0161E027
:101D10008BE00E940C0161E08AE00E940C0161E00E
:101D200089E00E940C0160E080E00E94490760E0C9
:101D30008BE194E00E94050761E080E00E94490782
:101D400060E08BE194E00E94050762E080E00E9481
:101D5000490760E08BE194E00E94050763E080E0C2
:101D60000E94490760E08BE194E00E94050760E073
:101D700081E00E9449078EE991E00E94C80661E077
:101D800081E00E94490784EA91E00E94C80662E06F
:101D900081E00E94490789EA91E00E94C80663E059
:101DA0008EE00E94490761E08BE194E00E94050704
:101DB00068EE73E080E090E00E94620161E08BE1F8
:101DC00094E00E94050768EE73E080E090E00E94D6
:101DD000620161E08BE194E00E94050768EE73E028
:101DE00080E090E00E94620161E08BE194E00E945B
:101DF000050768EE73E080E090E00E94620161E018
:101E00008BE194E00E94050768EE73E080E090E0CB
:101E10000E94620161E08BE194E00E94050768EE98
:101E200073E080E090E00E94620163E08EE00E9437
:101E3000490787E991E00E94C80668EE73E080E0F8
:101E400090E00E94620163E08EE00E94490761E039
:101E50008BE194E00E94050768EE73E080E090E07B
:101E60000E94620161E08BE194E00E94050768EE48
:101E700073E080E090E00E94620161E08BE194E019
:101E80000E94050768EE73E080E090E00E94620126
:101E900061E08BE194E00E94050768EE73E080E06A
:101EA00090E00E94620161E08BE194E00E940507EE
:101EB00068EE73E080E090E00E94620161E08BE1F7
:101EC00094E00E94050768EE73E080E090E00E94D5
:101ED00062010E947D0781E090E090933F03809330
:101EE0003E03909325038093240390931D038093D6
:101EF0001C0355E0C52ED12C01E010E0C6E0D0E077
:101F00008EE0282E312C98E1E92EF12C2BE0422E88
:101F1000512C3CE0632E712C49E0842E912C83E0FF
:101F20000E94B500909361038093600384E00E9457
:101F3000B50090935F0380935E0385E00E94B50037
:101F400090935D0380935C0386E00E94B5009093BC
:101F50005B0380935A0387E00E94B5009093590376
:101F60008093580380915403909155032091560318
:101F700030915703280F391F309353032093520396
:101F80002091500330915103280F391F30934F0394
:101F900020934E0320914C0330914D03280F391F9D
:101FA00030934B0320934A03209148033091490317
:101FB000820F931F90934703809346030E949B04D4
:101FC00020914403309145038217930739F50E940D
:101FD0009304209152033091530382179307F1F435
:101FE000A0904203B090430381E0A816B104B1F47D
:101FF0008091400390914103892B81F40E948B04CE
:10200000069764F4B0924103A09240030E947D07BA
:102010008FE090E090933F0380933E030E949B04E7
:1020200020913C0330913D038217930739F50E94BC
:10203000930420914E0330914F0382179307F1F4DC
:10204000A0903A03B0903B0391E0A916B104B1F41B
:102050008091380390913903892B81F40E948B047D
:10206000069764F4B0923903A09238030E947D076A
:1020700080E190E090933F0380933E030E949B0495
:1020800020913603309137038217930739F50E9468
:10209000930420914A0330914B0382179307F1F484
:1020A000A0903403B090350391E0A916B104B1F4C7
:1020B0008091320390913303892B81F40E948B0429
:1020C000069764F4B0923303A09232030E947D0716
:1020D00081E190E090933F0380933E030E949B0434
:1020E00020913003309131038217930739F50E9414
:1020F0009304209146033091470382179307F1F42C
:10210000A0902E03B0902F0391E0A916B104B1F472
:1021100080912C0390912D03892B81F40E948B04D4
:10212000069764F4B0922D03A0922C030E947D07C1
:1021300082E190E090933F0380933E03E0913E0361
:10214000F0913F033197E231F10508F019C1E555EF
:10215000FF4E0C94A01DBD100B11F81196125913CF
:1021600029142C14DA14A1154F161817C817911832
:1021700041190A1AF01ABA1BA01C60E080E00E9404
:10218000490763E08BE194E00E94050763E080E08B
:102190000E94490760E08BE194E00E94050763E03C
:1021A00081E00E9449078DEA91E00E94C80660E044
:1021B00083E10E94490760E08BE194E00E940507FB
:1021C00061E083E10E94490760E08BE194E00E94B6
:1021D000050762E083E10E94490760E08BE194E03B
:1021E0000E94050763E083E10E94490760E08BE1FC
:1021F00094E00E940507809160039091610301972C
:1022000009F0BEC00E947D0782E090E090933F03FA
:1022100080933E03B5C060E081E00E94490782EBF5
:1022200091E00E94C80661E081E00E9449078EEBC0
:1022300091E00E94C80663E080E00E94490760E0E8
:102240008BE194E00E94050763E081E00E9449076A
:1022500089EC91E00E94C80663E088E00E9449078B
:1022600060E08BE194E00E94050763E089E00E9452
:1022700049078FE891E00E94C80680915A03909127
:102280005B03019749F48091240390912503019603
:102290009093250380932403809124039091250338
:1022A000039724F0109325030093240380915C038B
:1022B00090915D03019749F4809124039091250347
:1022C0000197909325038093240380912403909198
:1022D00025031816190634F082E090E09093250348
:1022E000809324038091240390912503019789F41E
:1022F00061E080E00E9449078CE991E00E94C806F5
:1023000060E080E00E94490767E08BE194E00E9472
:1023100005078091240390912503029789F460E0DA
:1023200080E00E9449078CE991E00E94C80661E0C4
:1023300080E00E94490767E08BE194E00E94050776
:1023400080912403909125038130910559F4809167
:102350006003909161030197E1F50E947D0783E09E
:1023600090E054CF0297A9F58091600390916103AA
:10237000019779F50E947D07D0933F03C0933E03F8
:1023800080913E0390913F03019781F460E082E0E9
:102390000E9449070E949B040E940B070E9493041D
:1023A0000E9434070E948B040E94340768EE73E099
:1023B00080E090E00E94620180E090E0892B09F4C7
:1023C000AECD0E940002882309F498CD0E9400003F
:1023D00095CDA0905E03B0905F0391E0A916B10483
:1023E00079F60E947D07B0923F03A0923E03C8CFCA
:1023F00060E082E00E94490780ED91E00E94C806FB
:1024000062E082E00E9449078AED91E00E94C806DE
:1024100062E088E00E94490780912603909127039B
:102420000E940B0763E08FE00E94490760E08BE1A8
:1024300094E00E94050763E080E10E94490781EE75
:1024400091E00E94C80680915C0390915D03019722
:1024500069F562E088E00E94490780912603909127
:1024600027030B9724F084E991E00E94C80680912D
:102470002603909127030E940B07809126039091D9
:102480002703489724F01092270310922603809187
:1024900026039091270301969093270380932603A8
:1024A00064E670E080E090E00E94620180915A034F
:1024B00090915B03019771F562E088E00E94490703
:1024C00080912603909127030B9724F084E991E0F3
:1024D0000E94C80680912603909127030E940B0753
:1024E00080912603909127031816190624F0F09284
:1024F0002703E092260380912603909127030197FA
:10250000909327038093260364E670E080E090E0D8
:102510000E9462018091580390915903019709F03C
:102520002FCF0E947D0784E090E070CE60E082E0D3
:102530000E94490786EE91E00E94C80662E082E0B0
:102540000E94490782EF91E00E94C80662E08AE09B
:102550000E94490780912803909129030B9724F04A
:1025600084E991E00E94C806809128039091290394
:102570000E940B0763E08FE00E94490760E08BE157
:1025800094E00E94050763E080E10E94490781EE24
:1025900091E00E94C80663E087E00E94490760E07E
:1025A0008BE194E00E94050763E088E00E94490700
:1025B0008FE891E00E94C80680915C0390915D03D2
:1025C000019769F562E08AE00E944907809128033B
:1025D000909129030B9724F084E991E00E94C806AA
:1025E00080912803909129030E940B078091280372
:1025F00090912903CC9724F010922903109228037C
:102600008091280390912903019690932903809348
:10261000280364E670E080E090E00E94620180910F
:102620005A0390915B03019781F562E08AE00E9472
:10263000490780912803909129030B9724F084E99E
:1026400091E00E94C80680912803909129030E947E
:102650000B0780912803909129031816190634F06E
:102660008CE390E0909329038093280380912803C2
:10267000909129030197909329038093280364E69E
:1026800070E080E090E00E94620180915803909198
:102690005903019731F40E947D07D0923F03C09205
:1026A0003E0380915E0390915F03019709F068CE2D
:1026B00054CE60E082E00E9449078BEF91E00E94D7
:1026C000C80662E082E00E94490787E092E00E942B
:1026D000C80662E08AE00E94490780912A0390912F
:1026E0002B030A9724F484E991E00E94C8068091A4
:1026F0002A0390912B030E940B0763E08FE00E9456
:10270000490760E08BE194E00E94050763E080E107
:102710000E94490781EE91E00E94C80663E087E0CD
:102720000E94490760E08BE194E00E94050763E0A6
:1027300088E00E9449078FE891E00E94C8068091D6
:102740005C0390915D03019769F562E08AE00E9465
:10275000490780912A0390912B030A9724F484E976
:1027600091E00E94C80680912A0390912B030E9459
:102770000B0780912A0390912B03CC9724F01092A1
:102780002B0310922A0380912A0390912B03019628
:1027900090932B0380932A0364E670E080E090E03E
:1027A0000E94620180915A0390915B03019781F529
:1027B00062E08AE00E94490780912A0390912B03EE
:1027C0000A9724F484E991E00E94C80680912A03C4
:1027D00090912B030E940B0780912A0390912B0369
:1027E0001816190634F08CE390E090932B03809335
:1027F0002A0380912A0390912B03019790932B0336
:1028000080932A0364E670E080E090E00E94620119
:10281000A0905803B090590381E0A816B104A1F428
:102820000E947D0740912A0350912B036091280359
:102830007091290380912603909127030E94D10271
:10284000B0923F03A0923E0380915E0390915F039C
:1028500065CE0E94900794CD0E947D07109343039C
:102860000093420360E082E00E94490780E192E029
:102870000E94C80662E083E00E9449078BE192E073
:102880000E94C80662E089E00E94490780914403E3
:10289000909145030A9724F484E991E00E94C806C8
:1028A00080914403909145030E940B0763E08FE001
:1028B0000E94490760E08BE194E00E94050763E015
:1028C00080E10E94490781EE91E00E94C806809154
:1028D0005C0390915D03019769F562E089E00E94D5
:1028E000490780914403909145030A9724F484E9B1
:1028F00091E00E94C80680914403909145030E9494
:102900000B078091440390914503489724F010925F
:10291000450310924403809144039091450301962E
:10292000909345038093440364E670E080E090E078
:102930000E94620180915A0390915B03019771F5A7
:1029400062E089E00E944907809144039091450329
:102950000A9724F484E991E00E94C8068091440318
:10296000909145030E940B07809144039091450389
:102970001816190624F0F0924503E0924403809162
:10298000440390914503019790934503809344033A
:1029900064E670E080E090E00E946201809158035C
:1029A00090915903019709F0EBCC0E947D0788E0D4
:1029B00090E02CCC0E947D0760E082E00E944907F5
:1029C00080E192E00E94C80662E083E00E9449072D
:1029D00082E292E00E94C80662E08BE00E94490712
:1029E00080915603909157030A9724F484E991E06B
:1029F0000E94C80680915603909157030E940B07CE
:102A000063E08EE00E94490760E08BE194E00E9461
:102A1000050763E08FE00E9449078BE292E00E9485
:102A2000C80663E086E00E94490760E08BE194E01D
:102A30000E94050763E087E00E9449078FE891E064
:102A40000E94C80680915C0390915D03019769F52F
:102A500062E08BE00E9449078091560390915703F2
:102A60000A9724F484E991E00E94C80680915603F5
:102A7000909157030E940B07809156039091570342
:102A8000CC9724F01092570310925603809156036E
:102A9000909157030196909357038093560364E6F1
:102AA00070E080E090E00E94620180915A03909172
:102AB0005B03019771F562E08BE00E94490780910A
:102AC0005603909157030A9724F484E991E00E94F9
:102AD000C80680915603909157030E940B0780917E
:102AE0005603909157031816190624F0D0935703F4
:102AF000C09356038091560390915703019790938A
:102B000057038093560364E670E080E090E00E94F3
:102B100062018091580390915903019731F40E940A
:102B20007D07D0933F03C0933E0380915E03909155
:102B30005F03019709F024CC0E947D0787E090E0B5
:102B400065CB0E947D0710933B0300933A0360E03E
:102B500082E00E94490780E192E00E94C80662E09C
:102B600083E00E9449078BE192E00E94C80662E080
:102B700089E00E94490780913C0390913D030A97A8
:102B800024F484E991E00E94C80680913C0390916E
:102B90003D030E940B0763E08FE00E94490760E05D
:102BA0008BE194E00E94050763E080E10E94490701
:102BB00081EE91E00E94C80680915C0390915D03D4
:102BC000019769F562E089E00E94490780913C0322
:102BD00090913D030A9724F484E991E00E94C8068D
:102BE00080913C0390913D030E940B0780913C0330
:102BF00090913D03489724F010923D0310923C03BE
:102C000080913C0390913D03019690933D03809306
:102C10003C0364E670E080E090E00E9462018091F5
:102C20005A0390915B03019771F562E089E00E947D
:102C3000490780913C0390913D030A9724F484E96D
:102C400091E00E94C80680913C0390913D030E9450
:102C50000B0780913C0390913D031816190624F050
:102C6000F0923D03E0923C0380913C0390913D0340
:102C7000019790933D0380933C0364E670E080E00D
:102C800090E00E946201809158039091590301974E
:102C900009F076CB0E947D078AE090E0B7CA0E94D7
:102CA0007D0760E082E00E94490780E192E00E9497
:102CB000C80662E083E00E94490782E292E00E9437
:102CC000C80662E08BE00E94490780915003909112
:102CD00051030A9724F484E991E00E94C806809188
:102CE0005003909151030E940B0763E08EE00E9415
:102CF000490760E08BE194E00E94050763E08FE004
:102D00000E9449078BE292E00E94C80663E086E0D9
:102D10000E94490760E08BE194E00E94050763E0B0
:102D200087E00E9449078FE891E00E94C8068091E1
:102D30005C0390915D03019769F562E08BE00E946E
:102D4000490780915003909151030A9724F484E934
:102D500091E00E94C80680915003909151030E9417
:102D60000B078091500390915103CC9724F010925F
:102D7000510310925003809150039091510301969A
:102D8000909351038093500364E670E080E090E0FC
:102D90000E94620180915A0390915B03019771F543
:102DA00062E08BE00E9449078091500390915103AB
:102DB0000A9724F484E991E00E94C80680915003A8
:102DC000909151030E940B07809150039091510301
:102DD0001816190624F0D0935103C0935003809124
:102DE00050039091510301979093510380935003A6
:102DF00064E670E080E090E00E94620180915803F8
:102E000090915903019731F40E947D07D0933F03BD
:102E1000C0933E0380915E0390915F03019709F098
:102E2000AFCA0E947D0790923F0380923E03A8CADA
:102E30000E947D07109335030093340360E082E025
:102E40000E94490780E192E00E94C80662E083E0A8
:102E50000E9449078BE192E00E94C80662E089E087
:102E60000E94490780913603909137030A9724F412
:102E700084E991E00E94C80680913603909137035F
:102E80000E940B0763E08FE00E94490760E08BE13E
:102E900094E00E94050763E080E10E94490781EE0B
:102EA00091E00E94C80680915C0390915D030197B8
:102EB00069F562E089E00E944907809136039091AC
:102EC00037030A9724F484E991E00E94C8068091B0
:102ED0003603909137030E940B078091360390913F
:102EE0003703489724F010923703109236038091ED
:102EF00036039091370301969093370380933603FE
:102F000064E670E080E090E00E94620180915A03E4
:102F100090915B03019771F562E089E00E94490797
:102F200080913603909137030A9724F484E991E065
:102F30000E94C80680913603909137030E940B07C8
:102F400080913603909137031816190624F0F092F9
:102F50003703E0923603809136039091370301974F
:102F6000909337038093360364E670E080E090E04E
:102F70000E9462018091580390915903019709F0D2
:102F8000FFC90E947D0770923F0360923E03F8C91B
:102F90000E947D0760E082E00E94490780E192E0A4
:102FA0000E94C80662E083E00E94490782E292E044
:102FB0000E94C80662E08BE00E94490780914C03A2
:102FC00090914D030A9724F484E991E00E94C80689
:102FD00080914C0390914D030E940B0763E08EE0BB
:102FE0000E94490760E08BE194E00E94050763E0DE
:102FF0008FE00E9449078BE292E00E94C80663E0DE
:1030000086E00E94490760E08BE194E00E9405079A
:1030100063E087E00E9449078FE891E00E94C806BC
:1030200080915C0390915D03019769F562E08BE00C
:103030000E94490780914C0390914D030A9724F414
:1030400084E991E00E94C80680914C0390914D0361
:103050000E940B0780914C0390914D03CC9724F074
:1030600010924D0310924C0380914C0390914D03AC
:10307000019690934D0380934C0364E670E080E0EA
:1030800090E00E94620180915A0390915B03019746
:1030900071F562E08BE00E94490780914C039091AA
:1030A0004D030A9724F484E991E00E94C8068091B8
:1030B0004C0390914D030E940B0780914C0390911B
:1030C0004D031816190624F0D0934D03C0934C03FA
:1030D00080914C0390914D03019790934D03809301
:1030E0004C0364E670E080E090E00E946201809111
:1030F000580390915903019731F40E947D07D093B2
:103100003F03C0933E0380915E0390915F0301975C
:1031100009F036C90E947D0750923F0340923E035A
:103120002FC90E947D0710932F0300932E0360E0A8
:1031300082E00E94490780E192E00E94C80662E0B6
:1031400083E00E9449078BE192E00E94C80662E09A
:1031500089E00E94490780913003909131030A97DA
:1031600024F484E991E00E94C80680913003909194
:1031700031030E940B0763E08FE00E94490760E083
:103180008BE194E00E94050763E080E10E9449071B
:1031900081EE91E00E94C80680915C0390915D03EE
:1031A000019769F562E089E00E9449078091300348
:1031B000909131030A9724F484E991E00E94C806B3
:1031C00080913003909131030E940B07809130036E
:1031D00090913103489724F01092310310923003FC
:1031E0008091300390913103019690933103809345
:1031F000300364E670E080E090E00E94620180911C
:103200005A0390915B03019771F562E089E00E9497
:10321000490780913003909131030A9724F484E99F
:1032200091E00E94C80680913003909131030E9482
:103230000B0780913003909131031816190624F082
:10324000F0923103E092300380913003909131038A
:103250000197909331038093300364E670E080E03F
:1032600090E00E9462018091580390915903019768
:1032700009F086C80E947D0730923F0320923E03EA
:103280007FC80E947D0760E082E00E94490780E1DC
:1032900092E00E94C80662E083E00E94490782E251
:1032A00092E00E94C80662E08BE00E94490780918C
:1032B0004803909149030A9724F484E991E00E941D
:1032C000C80680914803909149030E940B0763E070
:1032D0008EE00E94490760E08BE194E00E940507C0
:1032E00063E08FE00E9449078BE292E00E94C806EB
:1032F00063E086E00E94490760E08BE194E00E9471
:10330000050763E087E00E9449078FE891E00E948B
:10331000C80680915C0390915D03019769F562E0B6
:103320008BE00E94490780914803909149030A97D6
:1033300024F484E991E00E94C806809148039091AA
:1033400049030E940B078091480390914903CC9751
:1033500024F0109249031092480380914803909101
:1033600049030196909349038093480364E670E013
:1033700080E090E00E94620180915A0390915B038B
:10338000019771F562E08BE00E9449078091480344
:10339000909149030A9724F484E991E00E94C806B9
:1033A00080914803909149030E940B078091480344
:1033B000909149031816190624F0D0934903C0933D
:1033C00048038091480390914903019790934903E2
:1033D0008093480364E670E080E090E00E94620120
:1033E0008091580390915903019731F40E947D0711
:1033F000D0933F03C0933E0380915E0390915F039F
:10340000019711F00C94C0110E947D078DE090E0AF
:103410000C94061160E083E00E94490781E392E08A
:103420000E94C80662E08BE00E9449078091440335
:10343000909145030A9724F484E991E00E94C8061C
:1034400080914403909145030E940B0789E192E02B
:103450000E94C80680915603909157030A9724F45E
:1034600084E991E00E94C806809156039091570329
:103470000E940B0763E080E00E94490760E08BE157
:1034800094E00E94050763E081E00E94490782E41E
:1034900092E00E94C80663E083E00E94490760E072
:1034A0008BE194E00E94050763E08EE00E944907EB
:1034B00087E492E00E94C80661E08BE00E94DE0093
:1034C00061E08AE00E94DE0061E089E00E94DE00A7
:1034D00062E083E00E94490763E08BE194E00E9490
:1034E000050764E670E080E090E00E94620160E021
:1034F0008BE00E94DE0060E08AE00E94DE0060E077
:1035000089E00E94DE0062E083E00E9449078CE9C6
:1035100091E00E94C8066CE271E080E090E00E94B9
:10352000620161E08BE00E94DE0061E08AE00E94BF
:10353000DE0061E089E00E94DE0062E083E00E943C
:10354000490763E08BE194E00E94050764E670E0C0
:1035500080E090E00E94620160E08BE00E94DE006B
:1035600060E08AE00E94DE0060E089E00E94DE0008
:1035700062E083E00E9449078CE991E00E94C8065E
:103580006CE271E080E090E00E946201A090600334
:10359000B090610391E0A916B10451F41092410377
:1035A000109240030E947D07B0923F03A0923E0319
:1035B0008091580390915903019711F00C94C01118
:1035C000D0925503C092540310922D0310922C03F5
:1035D0000E947D0710933F0300933E030C94C0119B
:1035E00060E083E00E94490781E392E00E94C80600
:1035F00062E08BE00E94490780913C0390913D037B
:103600000A9724F484E991E00E94C80680913C0363
:1036100090913D030E940B0789E192E00E94C80649
:1036200080915003909151030A9724F484E991E02A
:103630000E94C80680915003909151030E940B078D
:1036400063E080E00E94490760E08BE194E00E9423
:10365000050763E081E00E94490782E492E00E944E
:10366000C80663E083E00E94490760E08BE194E0D4
:103670000E94050763E08EE00E94490787E492E01C
:103680000E94C80661E08BE00E94DE0061E08AE0F3
:103690000E94DE0061E089E00E94DE0062E083E0DB
:1036A0000E94490763E08BE194E00E94050764E60D
:1036B00070E080E090E00E94620160E08BE00E9498
:1036C000DE0060E08AE00E94DE0060E089E00E94A7
:1036D000DE0062E083E00E9449078CE991E00E94ED
:1036E000C8066CE271E080E090E00E94620161E057
:1036F0008BE00E94DE0061E08AE00E94DE0061E073
:1037000089E00E94DE0062E083E00E94490763E0F6
:103710008BE194E00E94050764E670E080E090E0B1
:103720000E94620160E08BE00E94DE0060E08AE0BF
:103730000E94DE0060E089E00E94DE0062E083E03B
:103740000E9449078CE991E00E94C8066CE271E092
:1037500080E090E00E946201A0906003B09061035D
:1037600081E0A816B10409F023CF1092390310921A
:10377000380318CF60E083E00E94490781E392E0BC
:103780000E94C80662E08BE00E94490780913603E0
:10379000909137030A9724F484E991E00E94C806C7
:1037A00080913603909137030E940B0789E192E0E4
:1037B0000E94C80680914C0390914D030A9724F40F
:1037C00084E991E00E94C80680914C0390914D03DA
:1037D0000E940B0763E080E00E94490760E08BE1F4
:1037E00094E00E94050763E081E00E94490782E4BB
:1037F00092E00E94C80663E083E00E94490760E00F
:103800008BE194E00E94050763E08EE00E94490787
:1038100087E492E00E94C80661E08BE00E94DE002F
:1038200061E08AE00E94DE0061E089E00E94DE0043
:1038300062E083E00E94490763E08BE194E00E942C
:10384000050764E670E080E090E00E94620160E0BD
:103850008BE00E94DE0060E08AE00E94DE0060E013
:1038600089E00E94DE0062E083E00E9449078CE963
:1038700091E00E94C8066CE271E080E090E00E9456
:10388000620161E08BE00E94DE0061E08AE00E945C
:10389000DE0061E089E00E94DE0062E083E00E94D9
:1038A000490763E08BE194E00E94050764E670E05D
:1038B00080E090E00E94620160E08BE00E94DE0008
:1038C00060E08AE00E94DE0060E089E00E94DE00A5
:1038D00062E083E00E94490762E083E00E944907BA
:1038E0008CE991E00E94C8066CE271E080E090E013
:1038F0000E946201A0906003B090610391E0A9165C
:10390000B10451F410923303109232030E947D07E8
:10391000B0923F03A0923E03A0905803B090590389
:1039200081E0A816B10411F00C94C011D092550397
:10393000C092540310923303109232030C94F1118D
:1039400060E083E00E94490781E392E00E94C8069C
:1039500062E08BE00E94490780913003909131032F
:103960000A9724F484E991E00E94C806809130030C
:10397000909131030E940B0789E192E00E94C806F2
:1039800080914803909149030A9724F484E991E0D7
:103990000E94C80680914803909149030E940B073A
:1039A00063E080E00E94490760E08BE194E00E94C0
:1039B000050763E081E00E94490782E492E00E94EB
:1039C000C80663E083E00E94490760E08BE194E071
:1039D0000E94050763E08EE00E94490787E492E0B9
:1039E0000E94C80661E08BE00E94DE0061E08AE090
:1039F0000E94DE0061E089E00E94DE0062E083E078
:103A00000E94490763E08BE194E00E94050764E6A9
:103A100070E080E090E00E94620160E08BE00E9434
:103A2000DE0060E08AE00E94DE0060E089E00E9443
:103A3000DE0062E083E00E9449078CE991E00E9489
:103A4000C8066CE271E080E090E00E94620161E0F3
:103A50008BE00E94DE0061E08AE00E94DE0061E00F
:103A600089E00E94DE0062E083E00E94490763E093
:103A70008BE194E00E94050764E670E080E090E04E
:103A80000E94620160E08BE00E94DE0060E08AE05C
:103A90000E94DE0060E089E00E94DE0062E083E0D8
:103AA0000E9449078CE991E00E94C8066CE271E02F
:103AB00080E090E00E946201A0906003B0906103FA
:103AC00091E0A916B10409F073CD10922D03109264
:103AD0002C0368CD97FB072E16F4009407D077FDD2
:103AE00009D00E94B51D07FC05D03EF49095819544
:103AF0009F4F0895709561957F4F0895A1E21A2E0A
:103B0000AA1BBB1BFD010DC0AA1FBB1FEE1FFF1F81
:103B1000A217B307E407F50720F0A21BB30BE40BD1
:103B2000F50B661F771F881F991F1A9469F7609518
:103B30007095809590959B01AC01BD01CF010895D2
:103B4000EE0FFF1F0590F491E02D0994A29FB001A4
:103B5000B39FC001A39F700D811D1124911DB29FC1
:103B6000700D811D1124911D0895AA1BBB1B51E1ED
:103B700007C0AA1FBB1FA617B70710F0A61BB70BDD
:103B8000881F991F5A95A9F780959095BC01CD0182
:063B90000895F894FFCF38
:103B960010181C1E1C18100001030509090B1B1820
:103BA600000004041F040400000A1F1F0E04000086
:103BB600040E0E0E1F0004001F1F1F1F1F1F1F1FB6
:103BC6000000000E0E0000000E0E0E0E0E0E0E0E63
:103BD60000004000140054001F1C1F1E1F1E1F1F44
:103BE6001E1F1E1F0000000036029601C30183023D
:103BF600F401D201E60100000000610534057706F4
:103C06000A052D051A050B0500000000050796019B
:103C16007706A3044144440044454C4554450042BC
:103C260041434B0030002020202020202000534D0F
:103C36004152540050494C4C00424F58004D454E9D
:103C460055004348414E47452054494D450053458C
:103C56005420414C41524D530053454C454354006A
:103C660053455420484F55525300484F5552533AE6
:103C7600004E45585400534554204D494E55544521
:103C860053004D494E555445533A0053455420531D
:103C960045434F4E4453005345434F4E44533A0019
:103CA60053455420414C41524D3A00486F7572734A
:103CB6003A004D696E757465733A00454E54455227
:103CC6000054616B6520796F75722070696C6C7336
:0E3CD6002E00444F4E4500534E4F4F5A4500AE
:00000001FF
